{
  "contractName": "MainContract",
  "abi": [
    {
      "inputs": [
        {
          "internalType": "uint256",
          "name": "",
          "type": "uint256"
        }
      ],
      "name": "Elections",
      "outputs": [
        {
          "internalType": "address",
          "name": "",
          "type": "address"
        }
      ],
      "stateMutability": "view",
      "type": "function",
      "constant": true
    },
    {
      "inputs": [],
      "name": "electionId",
      "outputs": [
        {
          "internalType": "uint256",
          "name": "",
          "type": "uint256"
        }
      ],
      "stateMutability": "view",
      "type": "function",
      "constant": true
    },
    {
      "inputs": [
        {
          "internalType": "string[]",
          "name": "_nda",
          "type": "string[]"
        },
        {
          "internalType": "string[]",
          "name": "_candidates",
          "type": "string[]"
        }
      ],
      "name": "createElection",
      "outputs": [],
      "stateMutability": "nonpayable",
      "type": "function"
    }
  ],
  "bytecode": "0x60806040526000805534801561001457600080fd5b506116fa806100246000396000f3fe60806040523480156200001157600080fd5b5060043610620000465760003560e01c8063051364d4146200004b5780631e9598e2146200006d5780633b26ad7f14620000a3575b600080fd5b62000055620000c3565b604051620000649190620004c6565b60405180910390f35b6200008b600480360381019062000085919062000348565b620000c9565b6040516200009a91906200046e565b60405180910390f35b620000c16004803603810190620000bb9190620002d5565b620000fc565b005b60005481565b60016020528060005260406000206000915054906101000a900473ffffffffffffffffffffffffffffffffffffffff1681565b600082826040516200010e90620001ac565b6200011b9291906200048b565b604051809103906000f08015801562000138573d6000803e3d6000fd5b50905080600160008054815260200190815260200160002060006101000a81548173ffffffffffffffffffffffffffffffffffffffff021916908373ffffffffffffffffffffffffffffffffffffffff160217905550600080815480929190620001a29062000651565b9190505550505050565b610f9c806200072983390190565b6000620001d1620001cb8462000517565b620004e3565b9050808382526020820190508260005b85811015620002155781358501620001fa888262000291565b845260208401935060208301925050600181019050620001e1565b5050509392505050565b600062000236620002308462000546565b620004e3565b9050828152602081018484840111156200024f57600080fd5b6200025c8482856200060c565b509392505050565b600082601f8301126200027657600080fd5b813562000288848260208601620001ba565b91505092915050565b600082601f830112620002a357600080fd5b8135620002b58482602086016200021f565b91505092915050565b600081359050620002cf816200070e565b92915050565b60008060408385031215620002e957600080fd5b600083013567ffffffffffffffff8111156200030457600080fd5b620003128582860162000264565b925050602083013567ffffffffffffffff8111156200033057600080fd5b6200033e8582860162000264565b9150509250929050565b6000602082840312156200035b57600080fd5b60006200036b84828501620002be565b91505092915050565b60006200038283836200041c565b905092915050565b6200039581620005ce565b82525050565b6000620003a88262000589565b620003b48185620005ac565b935083602082028501620003c88562000579565b8060005b858110156200040a5784840389528151620003e8858262000374565b9450620003f5836200059f565b925060208a01995050600181019050620003cc565b50829750879550505050505092915050565b6000620004298262000594565b620004358185620005bd565b9350620004478185602086016200061b565b6200045281620006fd565b840191505092915050565b620004688162000602565b82525050565b60006020820190506200048560008301846200038a565b92915050565b60006040820190508181036000830152620004a781856200039b565b90508181036020830152620004bd81846200039b565b90509392505050565b6000602082019050620004dd60008301846200045d565b92915050565b6000604051905081810181811067ffffffffffffffff821117156200050d576200050c620006ce565b5b8060405250919050565b600067ffffffffffffffff821115620005355762000534620006ce565b5b602082029050602081019050919050565b600067ffffffffffffffff821115620005645762000563620006ce565b5b601f19601f8301169050602081019050919050565b6000819050602082019050919050565b600081519050919050565b600081519050919050565b6000602082019050919050565b600082825260208201905092915050565b600082825260208201905092915050565b6000620005db82620005e2565b9050919050565b600073ffffffffffffffffffffffffffffffffffffffff82169050919050565b6000819050919050565b82818337600083830152505050565b60005b838110156200063b5780820151818401526020810190506200061e565b838111156200064b576000848401525b50505050565b60006200065e8262000602565b91507fffffffffffffffffffffffffffffffffffffffffffffffffffffffffffffffff8214156200069457620006936200069f565b5b600182019050919050565b7f4e487b7100000000000000000000000000000000000000000000000000000000600052601160045260246000fd5b7f4e487b7100000000000000000000000000000000000000000000000000000000600052604160045260246000fd5b6000601f19601f8301169050919050565b620007198162000602565b81146200072557600080fd5b5056fe608060405260006004553480156200001657600080fd5b5060405162000f9c38038062000f9c83398181016040528101906200003c9190620003f1565b600081511162000083576040517f08c379a00000000000000000000000000000000000000000000000000000000081526004016200007a90620004cc565b60405180910390fd5b81600081518110620000be577f4e487b7100000000000000000000000000000000000000000000000000000000600052603260045260246000fd5b602002602001015160009080519060200190620000dd9291906200023d565b508160018151811062000119577f4e487b7100000000000000000000000000000000000000000000000000000000600052603260045260246000fd5b602002602001015160019080519060200190620001389291906200023d565b5060005b8151811015620001ae576200019882828151811062000184577f4e487b7100000000000000000000000000000000000000000000000000000000600052603260045260246000fd5b6020026020010151620001b760201b60201c565b8080620001a5906200060b565b9150506200013c565b505050620006e6565b604051806060016040528060045481526020018281526020016000815250600260006004548152602001908152602001600020600082015181600001556020820151816001019080519060200190620002129291906200023d565b50604082015181600201559050506004600081548092919062000235906200060b565b919050555050565b8280546200024b90620005d5565b90600052602060002090601f0160209004810192826200026f5760008555620002bb565b82601f106200028a57805160ff1916838001178555620002bb565b82800160010185558215620002bb579182015b82811115620002ba5782518255916020019190600101906200029d565b5b509050620002ca9190620002ce565b5090565b5b80821115620002e9576000816000905550600101620002cf565b5090565b600062000304620002fe8462000522565b620004ee565b9050808382526020820190508260005b858110156200034857815185016200032d8882620003c4565b84526020840193506020830192505060018101905062000314565b5050509392505050565b600062000369620003638462000551565b620004ee565b9050828152602081018484840111156200038257600080fd5b6200038f8482856200059f565b509392505050565b600082601f830112620003a957600080fd5b8151620003bb848260208601620002ed565b91505092915050565b600082601f830112620003d657600080fd5b8151620003e884826020860162000352565b91505092915050565b600080604083850312156200040557600080fd5b600083015167ffffffffffffffff8111156200042057600080fd5b6200042e8582860162000397565b925050602083015167ffffffffffffffff8111156200044c57600080fd5b6200045a8582860162000397565b9150509250929050565b60006200047360248362000584565b91507f54686572652073686f756c642062652061746c6561737420312063616e64696460008301527f6174652e000000000000000000000000000000000000000000000000000000006020830152604082019050919050565b60006020820190508181036000830152620004e78162000464565b9050919050565b6000604051905081810181811067ffffffffffffffff82111715620005185762000517620006b7565b5b8060405250919050565b600067ffffffffffffffff82111562000540576200053f620006b7565b5b602082029050602081019050919050565b600067ffffffffffffffff8211156200056f576200056e620006b7565b5b601f19601f8301169050602081019050919050565b600082825260208201905092915050565b6000819050919050565b60005b83811015620005bf578082015181840152602081019050620005a2565b83811115620005cf576000848401525b50505050565b60006002820490506001821680620005ee57607f821691505b6020821081141562000605576200060462000688565b5b50919050565b6000620006188262000595565b91507fffffffffffffffffffffffffffffffffffffffffffffffffffffffffffffffff8214156200064e576200064d62000659565b5b600182019050919050565b7f4e487b7100000000000000000000000000000000000000000000000000000000600052601160045260246000fd5b7f4e487b7100000000000000000000000000000000000000000000000000000000600052602260045260246000fd5b7f4e487b7100000000000000000000000000000000000000000000000000000000600052604160045260246000fd5b6108a680620006f66000396000f3fe608060405234801561001057600080fd5b50600436106100625760003560e01c80630121b93f1461006757806306fdde03146100835780632d35a8a2146100a15780633477ee2e146100bf5780637284e416146100f1578063a3ec138d1461010f575b600080fd5b610081600480360381019061007c91906104eb565b61013f565b005b61008b6102a4565b6040516100989190610606565b60405180910390f35b6100a9610332565b6040516100b69190610668565b60405180910390f35b6100d960048036038101906100d491906104eb565b610338565b6040516100e893929190610683565b60405180910390f35b6100f96103ea565b6040516101069190610606565b60405180910390f35b610129600480360381019061012491906104c2565b610478565b60405161013691906105eb565b60405180910390f35b600360003373ffffffffffffffffffffffffffffffffffffffff1673ffffffffffffffffffffffffffffffffffffffff16815260200190815260200160002060009054906101000a900460ff16156101cc576040517f08c379a00000000000000000000000000000000000000000000000000000000081526004016101c390610648565b60405180910390fd5b600454811080156101de575060008110155b61021d576040517f08c379a000000000000000000000000000000000000000000000000000000000815260040161021490610628565b60405180910390fd5b6001600360003373ffffffffffffffffffffffffffffffffffffffff1673ffffffffffffffffffffffffffffffffffffffff16815260200190815260200160002060006101000a81548160ff02191690831515021790555060026000828152602001908152602001600020600201600081548092919061029c9061078a565b919050555050565b600080546102b190610758565b80601f01602080910402602001604051908101604052809291908181526020018280546102dd90610758565b801561032a5780601f106102ff5761010080835404028352916020019161032a565b820191906000526020600020905b81548152906001019060200180831161030d57829003601f168201915b505050505081565b60045481565b600260205280600052604060002060009150905080600001549080600101805461036190610758565b80601f016020809104026020016040519081016040528092919081815260200182805461038d90610758565b80156103da5780601f106103af576101008083540402835291602001916103da565b820191906000526020600020905b8154815290600101906020018083116103bd57829003601f168201915b5050505050908060020154905083565b600180546103f790610758565b80601f016020809104026020016040519081016040528092919081815260200182805461042390610758565b80156104705780601f1061044557610100808354040283529160200191610470565b820191906000526020600020905b81548152906001019060200180831161045357829003601f168201915b505050505081565b60036020528060005260406000206000915054906101000a900460ff1681565b6000813590506104a781610842565b92915050565b6000813590506104bc81610859565b92915050565b6000602082840312156104d457600080fd5b60006104e284828501610498565b91505092915050565b6000602082840312156104fd57600080fd5b600061050b848285016104ad565b91505092915050565b61051d816106ef565b82525050565b600061052e826106c1565b61053881856106cc565b9350610548818560208601610725565b61055181610831565b840191505092915050565b6000610569601a836106cc565b91507f496e76616c69642063616e64696461746520746f20566f7465210000000000006000830152602082019050919050565b60006105a96018836106cc565b91507f566f7465722068617320616c726561647920566f7465642100000000000000006000830152602082019050919050565b6105e58161071b565b82525050565b60006020820190506106006000830184610514565b92915050565b600060208201905081810360008301526106208184610523565b905092915050565b600060208201905081810360008301526106418161055c565b9050919050565b600060208201905081810360008301526106618161059c565b9050919050565b600060208201905061067d60008301846105dc565b92915050565b600060608201905061069860008301866105dc565b81810360208301526106aa8185610523565b90506106b960408301846105dc565b949350505050565b600081519050919050565b600082825260208201905092915050565b60006106e8826106fb565b9050919050565b60008115159050919050565b600073ffffffffffffffffffffffffffffffffffffffff82169050919050565b6000819050919050565b60005b83811015610743578082015181840152602081019050610728565b83811115610752576000848401525b50505050565b6000600282049050600182168061077057607f821691505b6020821081141561078457610783610802565b5b50919050565b60006107958261071b565b91507fffffffffffffffffffffffffffffffffffffffffffffffffffffffffffffffff8214156107c8576107c76107d3565b5b600182019050919050565b7f4e487b7100000000000000000000000000000000000000000000000000000000600052601160045260246000fd5b7f4e487b7100000000000000000000000000000000000000000000000000000000600052602260045260246000fd5b6000601f19601f8301169050919050565b61084b816106dd565b811461085657600080fd5b50565b6108628161071b565b811461086d57600080fd5b5056fea2646970667358221220d4c57f818ec0b0edc1ca1fa66545fb46c8506a532cce96c40c6916adc80eb4ba64736f6c63430008000033a2646970667358221220251356091107c257cd49e9ac9a8fb7814bacbb12ee54c9c66b17966051f3ebd364736f6c63430008000033",
  "immutableReferences": {},
  "source": "// SPDX-License-Identifier: MIT\npragma solidity >=0.8.0;\n\nimport './Election.sol';\n\ncontract MainContract {\n  uint public electionId = 0;\n  mapping (uint => address) public Elections;\n\n  function createElection (string[] memory _nda, string[] memory _candidates) public {\n    Election election = new Election(_nda, _candidates);\n    Elections[electionId] = address(election);\n    electionId++;\n  }\n}",
  "sourcePath": "/Users/sarahroff/avalanche-voting/contracts/MainContract.sol",
  "compiler": {
    "name": "solc",
    "version": "0.8.0+commit.c7dfd78e.Emscripten.clang"
  },
  "schemaVersion": "3.4.4",
  "updatedAt": "2022-01-06T20:20:43.671Z",
  "networkType": "ethereum",
  "devdoc": {
    "kind": "dev",
    "methods": {},
    "version": 1
  },
  "userdoc": {
    "kind": "user",
    "methods": {},
    "version": 1
  }
}